:040000000C942A0032
:100004000C9400000C9400000C9400000C9400006C
:100014000C9400000C9400000C9400000C9400005C
:100024000C9400000C9400000C9400000C9400004C
:100034000C9400000C9400000C9400000C9400003C
:100044000C9400000C9400000C9400000C9400002C
:10005400F894EE27ECBBF1E0FBBFEBBFE5BF8DE00E
:10006400A2E0BB27ED938A95E9F780E094E0A0E64F
:10007400ED930197E9F7EFE5EDBFE4E0EEBFC0E6ED
:10008400D1E00C949B001A930A93859902C0869937
:1000940003C0E0E0F0E04AC0B29902C0B39903C0E3
:1000A400E0E0F0E043C09498C198949AC19A859B8B
:1000B40002C0869B03C0E0E0F0E038C0B29B02C0FF
:1000C400B39B03C0E0E0F0E031C001E010E0112395
:1000D4005AF1003011F4DE9801C0DE9A003011F4B8
:1000E400AF9801C0AF9ADF9AC09ADF98C098A0E099
:1000F4008599A1E046D029F4A0E08699A1E041D0F9
:1001040019F4E0E0F0E012C0A0E0B299A1E039D027
:1001140029F4A0E0B399A1E034D019F4E0E0F0E0D0
:1001240005C001501040D3CFE1E0F0E009911991EE
:100134000895E0EEEABBE3E0E7BBEFE1E1BBE0EC0E
:10014400E4BBB098849ADF98C098DD9A949AC19AD7
:10015400AE9ADD98AE98DD9AAE9A90989198A8ECF4
:10016400B0E014D090DF8F01E1E0F0E0E017F10798
:1001740011F4909A01C0919AA8ECB0E007D0EDCFA9
:10018400FFCFF801B0E0EA17FB070895109639F0A5
:10019400A8958DEC9AE00197F1F71197C9F70895A6
:00000001FF
