:040000000C942A0032
:100004000C9400000C9400000C9400000C9400006C
:100014000C9400000C9400000C9400000C9400005C
:100024000C9400000C9400000C9400000C9400004C
:100034000C9400000C9400000C9400000C9400003C
:100044000C9400000C9400000C9400000C9400002C
:10005400F894EE27ECBBF1E0FBBFEBBFE5BF8DE00E
:10006400A2E0BB27ED938A95E9F780E094E0A0E64F
:10007400ED930197E9F7EFE5EDBFE4E0EEBFC0E6ED
:10008400D1E00C94B800A9D005E010E020E030E005
:100094002230E0E03E070CF064C0A0E09699A1E0B5
:1000A400F801E870F070A3D0EA2B11F4969801C01F
:1000B400969AA0E09599A1E0F801E470F07099D0C7
:1000C400EA2B11F4959801C0959AA0E0DE99A1E07D
:1000D400F801E270F070F595E795EA2B11F4DE98DB
:1000E40001C0DE9AA0E0DD99A1E0E02FE170EA2BE7
:1000F40011F4DD9801C0DD9ADF9AAF9ADF98AF98CA
:1001040096989598DE98DD98A0E0B399A1E04ED03A
:10011400A0E0B299A1E050D0A0E09D99A1E051D017
:10012400E0E09C99E1E052D019F0E0E0F0E01BC07F
:10013400A0E0879BA1E03AD0A0E0B19BA1E03CD035
:10014400A0E09E9BA1E03DD0E0E0CC9BE1E03ED06E
:1001540019F0E0E0F0E007C0EFE00E272F5F3F4F1B
:1001640097CFE1E0F0E03ED024960895E0EEEABBBC
:10017400E0E0E7BBE3E6E1BBE0E8E4BBB098849AE7
:10018400DF98AF9890989198A8ECB0E037D07BDFD7
:100194008F01E1E0F0E0E017F10711F4909A01C05B
:1001A400919AA8ECB0E02AD0EDCFFFCFEA2FEE0F62
:1001B400EE0FEE0F0E2E0895EA2FEE0FEE0F0E2A1D
:1001C4000895EA2FEE0FE029AE2F0895EA2BAE2F03
:1001D400F801B0E0EA17FB0708953A932A931A93BB
:1001E4000A9308953B812A81198108810895F59520
:1001F400E795F595E795F595E7950895109639F007
:10020400A8958DEC9AE00197F1F71197C9F7089535
:00000001FF
