:040000000C942A0032
:100004000C9400000C9400000C9400000C9400006C
:100014000C9400000C9400000C9400000C9400005C
:100024000C9400000C9400000C9400000C9400004C
:100034000C9400000C9400000C9400000C9400003C
:100044000C9400000C9400000C9400000C9400002C
:10005400F894EE27ECBBF1E0FBBFEBBFE5BF8DE00E
:10006400A2E0BB27ED938A95E9F780E094E0A0E64F
:10007400ED930197E9F7EFE5EDBFE4E0EEBFC0E6ED
:10008400D1E00C9409016A975FD101E010E01123DB
:100094000AF464C0003011F4AF9801C0AF9A27E0AD
:1000A40030E033230AF457C0D0D0AF8DAA231AF01E
:1000B400D3D0EBD0FACFEE85E03011F4C39801C071
:1000C400C39AE889E03011F4C29801C0C29AEA895F
:1000D400E03011F4C09801C0C09A47E050E05523C5
:1000E400BAF1D9D0AF8DAA231AF0DCD0CED0FACF92
:1000F400EE81E03011F4AF9801C0AF9AE885E030AA
:1001040011F4AE9801C0AE9AEA85E03011F4DE989D
:1001140001C0DE9AA0E0C399A1E0E0E0C299E1E069
:10012400EA23AE2FD8D0A0E0AF99A1E0E0E0AE99E9
:10013400E1E0EA23AE2FDBD019F0E0E0F0E064C0A8
:10014400F2D019F0E0E0F0E05FC041505040C7CF7A
:1001540021503040A6CF0150104099CF01E010E06B
:1001640011230AF44FC0003011F4AF9801C0AF9AC4
:1001740023E030E033230AF442C067D0AF8DAA23D2
:100184001AF06AD082D0FACFEE85E03011F4C1982B
:1001940001C0C19AE889E03011F4C09801C0C09A46
:1001A40043E050E0AB8DAA233AF175D0AF8DAA237A
:1001B4001AF078D06AD0FACFEE81E03011F4DD98ED
:1001C40001C0DD9AE885E03011F4DE9801C0DE9AC2
:1001D400A0E0C299A1E07FD0A0E0DD99A1E087D0A2
:1001E40019F0E0E0F0E010C09ED019F0E0E0F0E09B
:1001F4000BC041505040D6CF21503040BBCF0150AE
:100204001040AECFE1E0F0E0A6D0A0960895E0EE75
:10021400EABBEFE0E7BBE0ECE4BBE7E0E1BB9D9ABF
:10022400879890989198A8ECB0E0D0D02CDF8F01FB
:10023400E1E0F0E0E017F10711F4909A01C0919A1F
:10024400A8ECB0E0C3D0EDCFFFCF288F398FE3E027
:10025400F0E0EE8FFF8F0895EE8DFF8DDE011E9688
:10026400EE0FFF1FEA0FFB1F0F01E88DF98DA1E0D0
:10027400B0E094D0D001ED93FC93A88DB98DE2E069
:10028400F0E087D0E88FF98F0895EE8DFF8D3197D8
:10029400EE8FFF8F08954E8B5F8BE3E0F0E0EE8FDF
:1002A400FF8F0895EE8DFF8DDE011696EE0FFF1F72
:1002B400EA0FFB1F0F01EE89FF89A1E0B0E06ED0C9
:1002C400D001ED93FC93AE89BF89E2E0F0E061D008
:1002D400EE8BFF8B0895E0E0C099E1E0EA23EE2382
:1002E400E1E009F0EE27F0E0EC8FFD8F0895E0E007
:1002F400DE99E1E0EA23EE23E1E009F0EE27F0E005
:10030400EA8FFB8FE0E08599E1E00E2EEA8DFB8D0C
:10031400AC8DBD8DEA27FB27E027F127A02DB0E0A7
:10032400EA17FB070895E0E0869BE1E00E2EEA8DD4
:10033400FB8DAC8DBD8DEA27FB27E027F127A02D8F
:10034400B0E0EA17FB0708955A934A933A932A9325
:100354001A930A9308955D814C813B812A81198106
:1003640008810895F195E195F04008950024112441
:1003740090E1AA0FBB1F001C111C0E1A1F0A18F4CF
:100384000E0E1F1E01C0A1609A9599F7FD01D001C0
:1003940008950ED0EBDF0EF4E5DF0895E894F7FF3F
:1003A40002C0E0DF6894EA23FB230EF4DBDF089548
:1003B400E894F7FF02C0D6DF6894B7FF06C0B19592
:1003C400A195B04000F8039400FA0895109639F00E
:1003D400A8958DEC9AE00197F1F71197C9F7089564
:00000001FF
