:020000000C945E
:100002002A000C9400000C9400000C9400000C9444
:1000120000000C9400000C9400000C9400000C945E
:1000220000000C9400000C9400000C9400000C944E
:1000320000000C9400000C9400000C9400000C943E
:1000420000000C9400000C9400000C9400000C942E
:100052000000F894EE27ECBBF1E0FBBFEBBFE5BF7D
:100062008DE0A2E0BB27ED938A95E9F780E094E06A
:10007200A0E6ED930197E9F7EFE5EDBFE4E0EEBF0F
:10008200C0E6D1E00C94E2006897C6D0E0E0EC8FC5
:10009200ED8FAC8DBD8D12970CF08EC0EC8DE030E3
:1000A20011F4959801C0959A20E030E02430E0E008
:1000B2003E070CF07BC02A8F3B8F03E010E0112338
:1000C2008AF0F801DE0150969AD0EA8DFB8D9DD020
:1000D200AA8DBB8DE2E0F0E0C4D0EA8FFB8F015025
:1000E2001040EDCFEC89E03011F4AD9801C0AD9A2B
:1000F200EE89E03011F4DE9801C0DE9A40E050E073
:100102004430E0E05E070CF04EC0488F598F03E0A8
:1001120010E011238AF0F801DE01189670D0E88D04
:10012200F98D73D0A88DB98DE2E0F0E09AD0E88F16
:10013200F98F01501040EDCFEC85E03011F4AE980C
:1001420001C0AE9AEE85E03011F4DF9801C0DF9A6B
:10015200E0E0CD99E1E06E2FE0E09F99E1E0A2E0DE
:10016200EA9FF001A62FB0E0EA0FFB1FBF01E0E01B
:10017200B199E1E0A4E0EA9FF001E60FF71FEE83F8
:10018200FF83FA01E20FF31FAC8DBD8DAE0FBF1FCF
:10019200EE81FF81EA17FB0719F0E0E0F0E00EC004
:1001A2004F5F5F4FADCF2F5F3F4F80CFEC8DFD8D07
:1001B2003196EC8FFD8F6DCFE1E0F0E034D06E969A
:1001C2000895E0ECEABBE1E0E7BBE0E6E4BBE7E38D
:1001D200E1BB849AB09890989198A8ECB0E05ED078
:1001E20053DF8F01E1E0F0E0E017F10711F4909A9C
:1001F20001C0919AA8ECB0E051D0EDCFFFCFEE0F45
:10020200FF1FEA0FFB1F0F010895A1E0B0E02ED0FF
:10021200D001ED93FC9308955A934A933A932A930B
:100222001A930A9308955D814C813B812A81198139
:1002320008810895F195E195F04008950024112474
:1002420090E1AA0FBB1F001C111C0E1A1F0A18F402
:100252000E0E1F1E01C0A1609A9599F7FD01D001F3
:1002620008950ED0EBDF0EF4E5DF0895E894F7FF72
:1002720002C0E0DF6894EA23FB230EF4DBDF08957B
:10028200E894F7FF02C0D6DF6894B7FF06C0B195C5
:10029200A195B04000F8039400FA0895109639F041
:1002A200A8958DEC9AE00197F1F71197C9F7089597
:00000001FF
