:020000000C945E
:100002002A000C9400000C9400000C9400000C9444
:1000120000000C9400000C9400000C9400000C945E
:1000220000000C9400000C9400000C9400000C944E
:1000320000000C9400000C9400000C9400000C943E
:1000420000000C9400000C9400000C9400000C942E
:100052000000F894EE27ECBBF1E0FBBFEBBFE5BF7D
:100062008DE0A2E0BB27ED938A95E9F780E094E06A
:10007200A0E6ED930197E9F7EFE5EDBFE4E0EEBF0F
:10008200C0E6D1E00C9407016897F0D0E0E0EC8F75
:10009200ED8FAC8DBD8D12970CF0B3C0EC8DE030BE
:1000A20011F4AF9801C0AF9A20E030E02031E0E0D7
:1000B2003E070CF0A0C02A8F3B8F03E010E0112313
:1000C2008AF0F801DE015096BFD0EA8DFB8DC2D0D6
:1000D200AA8DBB8DE2E0F0E0EED0EA8FFB8F0150FB
:1000E2001040EDCFE889E03011F4DC9801C0DC9AD1
:1000F200EA89E03011F4DE9801C0DE9AEC89E03042
:1001020011F4979801C0979AEE89E03011F4C298E1
:1001120001C0C29AD901E3E0F0E0D2D0AF01403190
:10012200E0E05E070CF064C0488F598F03E010E0F6
:1001320011238AF0F801DE01189686D0E88DF98D38
:1001420089D0A88DB98DE2E0F0E0B5D0E88FF98FC3
:1001520001501040EDCFE885E03011F4AC9801C0B9
:10016200AC9AEA85E03011F4DF9801C0DF9AEC85A1
:10017200E03011F4969801C0969AEE85E03011F4C1
:10018200C19801C0C19AE0E0B399E1E06E2FE0E0CE
:100192008599E1E0A2E0EA9FF001A62FB0E0EA0F24
:1001A200FB1FBF01E0E0CD99E1E0A4E05AD0E0E01E
:1001B2009D99E1E0A8E055D0E0E09E99E1E0A0E160
:1001C200EA9FF001E60FF71FEE83FF83F901AC8D82
:1001D200BD8DEA0FFB1FE40FF51FAE81BF81EA1749
:1001E200FB0719F0E0E0F0E00EC04D5F5F4F97CFE4
:1001F2002F5F3F4F5BCFEC8DFD8D3196EC8FFD8FE6
:1002020048CFE1E0F0E039D06E960895E0EDEABB28
:10021200E7E0E7BBE0E9E4BBE7EDE1BB849AB09835
:1002220090989198A8ECB0E071D02EDF8F01E1E0B8
:10023200F0E0E017F10711F4909A01C0919AA8EC4E
:10024200B0E064D0EDCFFFCFEE0FFF1FEA0FFB1F30
:100252000F010895A1E0B0E041D0D001ED93FC93ED
:100262000895EA9FF0016E0F7F1F08955A934A93F3
:100272003A932A931A930A9308955D814C813B81A4
:100282002A81198108810895F195E195F040089538
:100292000024112490E1AA0FBB1F001C111C0E1A8E
:1002A2001F0A18F40E0E1F1E01C0A1609A9599F73D
:1002B200FD01D00108951CD0EBDF0EF4E5DF0895B7
:1002C200E894B7FF04C0B195A195B0406894F7FDDA
:1002D200DBDFDEDFFD010EF4D7DF0895E894F7FFE0
:1002E20002C0D2DF6894EA23FB230EF4CDDF089527
:1002F200E894F7FF02C0C8DF6894B7FF06C0B19563
:10030200A195B04000F8039400FA0895109639F0D0
:10031200A8958DEC9AE00197F1F71197C9F7089526
:00000001FF
