:040000000C942A0032
:100004000C9400000C9400000C9400000C9400006C
:100014000C9400000C9400000C9400000C9400005C
:100024000C9400000C9400000C9400000C9400004C
:100034000C9400000C9400000C9400000C9400003C
:100044000C9400000C9400000C9400000C9400002C
:10005400F894EE27ECBBF1E0FBBFEBBFE5BF8DE00E
:10006400A2E0BB27ED938A95E9F780E094E0A0E64F
:10007400ED930197E9F7EFE5EDBFE4E0EEBFC0E6ED
:10008400D1E00C94400260D217D2DD9ADE9819D2E6
:1000940025D22AD237D2E02919F0E0E0F0E0EBC112
:1000A4000BD22230E0E03E070CF093C031D26FD285
:1000B400E03011F4AD9801C0AD9A2AD26AD2E03092
:1000C40011F4AF9801C0AF9A23D2F695E795E030CA
:1000D40011F4C09801C0C09A20D211F4C29801C092
:1000E400C29A20D201D2FAD1E02919F0E0E0F0E07E
:1000F400C2C10ED24CD2E03011F4DC9801C0DC9ABB
:1001040007D247D2E03011F4AE9801C0AE9A00D2C3
:10011400F695E795E03011F4C19801C0C19AFDD17C
:1001240011F4C39801C0C39A01D2DED1EBD1E02906
:1001340019F0E0E0F0E09FC10F5F1F4FE9D127D233
:10014400E03011F4DC9801C0DC9AE2D122D2E03034
:1001540011F4AE9801C0AE9ADBD1F695E795E03084
:1001640011F4C19801C0C19AD8D111F4C39801C047
:10017400C39ADCD1B9D1C6D1E02919F0E0E0F0E0AE
:100184007AC1C6D104D2E03011F4AD9801C0AD9A61
:10019400BFD1FFD1E03011F4AF9801C0AF9AB8D10C
:1001A400F695E795E03011F4C09801C0C09AB5D136
:1001B40011F4C29801C0C29AB9D196D1A3D1E02951
:1001C40019F0E0E0F0E057C10F5F1F4F2F5F3F4F82
:1001D40068CFDD98DE9A75D195D1ACD1B0D1E02944
:1001E40019F0E0E0F0E047C167D12230E0E03E07DB
:1001F4000CF093C08DD1CBD1E03011F4AD9801C097
:10020400AD9A86D1C6D1E03011F4AF9801C0AF9A4F
:100214007FD1F695E795E03011F4C09801C0C09AFB
:100224007CD111F4C29801C0C29A7CD15DD156D15F
:10023400E02919F0E0E0F0E01EC16AD1A8D1E03075
:1002440011F4DC9801C0DC9A63D1A3D1E03011F43D
:10025400AE9801C0AE9A5CD1F695E795E03011F402
:10026400C19801C0C19A59D111F4C39801C0C39A6D
:1002740059D160D164D1E02919F0E0E0F0E0FBC08D
:100284000F5F1F4F45D183D1E03011F4DC9801C0DA
:10029400DC9A3ED17ED1E03011F4AE9801C0AE9A22
:1002A40037D1F695E795E03011F4C19801C0C19AB1
:1002B40034D111F4C39801C0C39A38D115D122D1D5
:1002C400E02919F0E0E0F0E0D6C022D160D1E030BE
:1002D40011F4AD9801C0AD9A1BD15BD1E03011F49B
:1002E400AF9801C0AF9A14D1F695E795E03011F4B8
:1002F400C09801C0C09A11D111F4C29801C0C29A29
:1003040011D118D11CD1E02919F0E0E0F0E0B3C01C
:100314000F5F1F4F2F5F3F4F68CFDD98DE98DF9A46
:10032400AD98AF98C098C298DC98AE98C198C3981D
:10033400F9D0DAD0D3D0E02919F0E0E0F0E09BC0A6
:10034400BBD02230E0E03E070CF093C0E1D01FD1D7
:10035400E03011F4AD9801C0AD9ADAD01AD1E03092
:1003640011F4AF9801C0AF9AD3D0F695E795E03079
:1003740011F4C09801C0C09AD0D011F4C29801C041
:10038400C29AD0D0B1D0AAD0E02919F0E0E0F0E0D0
:1003940072C0BED0FCD0E03011F4DC9801C0DC9A0D
:1003A400B7D0F7D0E03011F4AE9801C0AE9AB0D017
:1003B400F695E795E03011F4C19801C0C19AADD02B
:1003C40011F4C39801C0C39AADD08ED087D0E02970
:1003D40019F0E0E0F0E04FC00F5F1F4F99D0D7D085
:1003E400E03011F4DC9801C0DC9A92D0D2D0E03035
:1003F40011F4AE9801C0AE9A8BD0F695E795E03033
:1004040011F4C19801C0C19A88D011F4C39801C0F5
:10041400C39A8CD069D076D0E02919F0E0E0F0E0FE
:100424002AC076D0B4D0E03011F4AD9801C0AD9AB2
:100434006FD0AFD0E03011F4AF9801C0AF9A68D05C
:10044400F695E795E03011F4C09801C0C09A65D0E4
:1004540011F4C29801C0C29A65D046D03FD0E029B9
:1004640019F0E0E0F0E007C00F5F1F4F2F5F3F4F30
:1004740068CFE1E0F0E06DD024960895E0EFEABBA8
:10048400EFE0E7BBE0EEE4BBE7E0E1BB9C9A8798D2
:1004940090989198A8ECB0E081D0F5DD8F01E1E06F
:1004A400F0E0E017F10711F4909A01C0919AA8ECDA
:1004B400B0E074D0EDCFFFCF00E010E020E030E0FA
:1004C4000895DF98AD98AF98C098C298DC98AE981C
:1004D400C198C398A0E08699A1E00895E1E0EA17E5
:1004E400E1E009F4EE2708950E2EA0E08599A1E03D
:1004F400E0E0EA17E1E009F4EE270E2AA0E084998F
:10050400A1E00895E0E0EA17E1E009F4EE27089598
:10051400E02FA1E0B0E02AD00895E02FA1E01ED0A2
:10052400E0300895A0E08699A1E0ECCFA0E08699A0
:10053400A1E0D4CF0E2EA0E08599A1E0CFCF0E2A62
:10054400A0E08499A1E0DECF3A932A931A930A9308
:1005540008953B812A81198108810895EE230E2E86
:10056400EA2F19F0EE0F0A94E9F70895EE230E2E00
:10057400E8E01E2EFD0151F0011420F0FE2FE0E012
:10058400011821F0EE0FFF1F0A94E1F70895F69584
:10059400E795F695E795F695E7950895109639F061
:1005A400A8958DEC9AE00197F1F71197C9F7089592
:00000001FF
